:020000040000FA
:100000000C945F000C9487000C9487000C9487007C
:100010000C9487000C9487000C9487000C947C113E
:100020000C9487000C9487000C9487000C94870034
:100030000C9487000C9487000C9487000C94870024
:100040000C9432110C9487000C94FE110C94D8116E
:100050000C9487000C9487000C9487000C94870004
:100060000C9430120C94870000000008000201007C
:100070000003040700000000000000000200000070
:1000800000250028002B0000000000240027002A83
:100090000004040404040404040202020202020331
:1000A000030303030301020408102040800102043B
:1000B000081020010204081020004F13B317112468
:1000C0001FBECFEFD8E0DEBFCDBF13E0A0E0B1E0B0
:1000D000EEE4F8E302C005900D92AC30B107D9F719
:1000E00024E0ACE0B3E001C01D92AC3CB207E1F704
:1000F00010E0CEE5D0E004C02197FE010E94D71A9F
:10010000CD35D107C9F70E9496130C941A1C0C9494
:10011000000090E0FC01EB55FF4F24918F569F4F5C
:10012000FC018491882399F090E0880F991FFC01CD
:10013000E957FF4FA591B491FC01E358FF4F85911A
:1001400094918FB7F894EC91E22BEC938FBF0895C4
:10015000CF92DF92EF92FF920F931F93CF938C0178
:10016000809100018B3051F08F3FB9F1CF911F91F9
:100170000F91FF90EF90DF90CF900895ECE7F0E0C3
:10018000C491C7FDF3CF8BE00E948900C1113AC032
:10019000980150E040E068E478EE81E090E00E9451
:1001A000E917BA01A901415051096109710985B5E1
:1001B000887F836085BD47BD8FEF9FEFDC01809313
:1001C000E1039093E203A093E303B093E4038091EF
:1001D0006E00826080936E00C9CF8BE08093000137
:1001E000ECE7F0E0C491CF3F09F4C0CFC13009F48F
:1001F0004DC098F1C23009F467C0C7FDB7CF8BE09E
:100200000E948900980150E040E0C23009F07EC0B1
:1002100060E970ED83E090E00E94E917BA01A9015E
:1002200041505109610971098091B100887F836053
:100230008093B1004093B3008FEF9FEFDC01809378
:10024000D9039093DA03A093DB03B093DC0380918E
:10025000700082608093700089CF14BC15BC84B597
:10026000826084BD85B5816085BDECE9F0E0E491F4
:10027000F0E0EE0FFF1FE358FF4F85919491E0EB04
:10028000F0E0E491E093D803C0E07DCF10928000CD
:10029000109281008091810088608093810080911C
:1002A0008100816080938100ECE9F0E0E491F0E06E
:1002B000EE0FFF1FE358FF4F85919491E0EBF0E0C4
:1002C000E491E093D7035FCF1092B0001092B10099
:1002D0008091B00082608093B0008091B100816015
:1002E0008093B100ECE9F0E0E491F0E0EE0FFF1F45
:1002F000E358FF4F859194919093D6038093D50353
:10030000E0EBF0E0E491E093D4033DCF60E072E1F4
:100310008AE790E00E94E91769017A0181E0C81A32
:10032000D108E108F108A601C130D9F4809181001B
:10033000887F816080938100D0928900C09288007C
:100340008FEF9FEFDC018093DD039093DE03A0939A
:10035000DF03B093E00380916F00826080936F00B1
:1003600005CFC23009F466CFC11100CF24CF90E091
:10037000FC01E859FF4F2491FC01EB55FF4F3491EC
:10038000FC01EF56FF4FE491EE23C9F0222339F030
:10039000233001F1A8F4213019F1223029F1F0E0E5
:1003A000EE0FFF1FE358FF4FA591B4918FB7F8945C
:1003B000EC91611126C030953E233C938FBF089588
:1003C0002730A9F02830C9F0243049F78091800007
:1003D0008F7D03C0809180008F7780938000DFCF76
:1003E00084B58F7784BDDBCF84B58F7DFBCF8091C3
:1003F000B0008F778093B000D2CF8091B0008F7D16
:10040000F9CF3E2BDACF8230910538F0880F991F53
:10041000880F991F05970197F1F708953FB7F89452
:100420008091800390918103A0918203B091830316
:1004300026B5A89B05C02F3F19F00196A11DB11D3F
:100440003FBFBA2FA92F982F8827BC01CD01620F7B
:10045000711D811D911D42E0660F771F881F991F36
:100460004A95D1F708958F929F92AF92BF92CF9203
:10047000DF92EF92FF924B015C010E940E026B0132
:100480007C010E940E026C197D098E099F09683E4D
:10049000734081059105A8F321E0821A9108A10813
:1004A000B10888EEC80E83E0D81EE11CF11C81144F
:1004B0009104A104B10429F7FF90EF90DF90CF9051
:1004C000BF90AF909F908F9008952FB7F894609150
:1004D0007C0370917D0380917E0390917F032FBFF9
:1004E0000895089508959091000189130BC0ECE7D9
:1004F000F0E0E4919FEF90930001E13049F028F0A3
:10050000E23061F060E00C94B70110926E00FACF17
:1005100090916F009D7F90936F00F4CF9091700049
:100520009D7F9093700091E09093B0009091B10006
:10053000987F94609093B1001092B300E3CFAF9294
:10054000BF92CF92DF92EF92FF920F931F93CF93C0
:10055000DF936C017B018B01040F151FEB015E0122
:10056000AE18BF08C017D10759F06991D601ED91B7
:10057000FC910190F081E02DC6010995892B79F756
:10058000C501DF91CF911F910F91FF90EF90DF9008
:10059000CF90BF90AF900895FC01538D448D252FCF
:1005A00030E0842F90E0821B930B541710F0CF960D
:1005B000089501970895FC01918D828D981761F03F
:1005C000A28DAE0FBF2FB11D5D968C91928D9F5F56
:1005D0009F73928F90E008958FEF9FEF0895FC0135
:1005E000918D828D981731F0828DE80FF11D858DE8
:1005F00090E008958FEF9FEF0895FC01918D228D7B
:10060000892F90E0805C9F4F821B91098F739927FF
:10061000089585EE93E00E94FD0221E0892B09F404
:1006200020E0822F089580E090E0892B29F00E943D
:10063000090381110C9400000895FC01A48DA80FFA
:10064000B92FB11DA35ABF4F2C91848D90E0019614
:100650008F739927848FA689B7892C93A089B18934
:100660008C91837080648C93938D848D981306C0D5
:100670000288F389E02D80818F7D80830895EF9239
:10068000FF920F931F93CF93DF93EC0181E0888F4C
:100690009B8D8C8D98131AC0E889F989808185FF1C
:1006A00015C09FB7F894EE89FF896083E889F989BE
:1006B00080818370806480839FBF81E090E0DF91C0
:1006C000CF911F910F91FF90EF900895F62E0B8D13
:1006D00010E00F5F1F4F0F731127E02E8C8D8E11CE
:1006E0000CC00FB607FCFACFE889F989808185FF35
:1006F000F5CFCE010E941D03F1CFEB8DEC0FFD2F46
:10070000F11DE35AFF4FF0829FB7F8940B8FEA89EF
:10071000FB8980818062CFCFCF93DF93EC01888DFE
:100720008823B9F0AA89BB89E889F9898C9185FD6C
:1007300003C0808186FD0DC00FB607FCF7CF8C91FA
:1007400085FFF2CF808185FFEDCFCE010E941D0392
:10075000E9CFDF91CF910895FC0183858F3F19F098
:1007600061E00C94B7010895FC0180819181892B8F
:1007700039F0A281B3819C9111968C919CBD8DBD65
:1007800083858F3F19F060E00C94B7010895AF9214
:10079000BF92CF92DF92EF92FF920F931F93CF936E
:1007A000DF93EC0188819981892B89F06EBD0DB4AE
:1007B00007FEFDCFBEB48B2DDF91CF911F910F911E
:1007C000FF90EF90DF90CF90BF90AF900895888515
:1007D000998511E0892B09F010E8AA24A394862FAB
:1007E000812309F0A12C062F2C813D814E815F8150
:1007F00060E271EA87E090E00E940818F22EB02EC5
:10080000E12CC22ED12CFF2019F0C6010E94030258
:100810008A85877F09F042C08D858F3F89F0902FB0
:10082000912381E009F480E08A1551F0EF85F88981
:100830008F89992369F19081892B8083AA24A394BD
:10084000E989FA898081998D892B8083FF2019F0AD
:10085000C6010E9403028E858F3F39F0EB89FC8927
:100860008081988D892309F0E12AE989FA899081AC
:10087000898D8095892380838E858F3F09F0BE2CDA
:1008800088859985892BB9F5110F1111BCCF93CFAC
:100890009081809589238083A12CD2CFE989FA8920
:1008A0008081998D892B8083FF2019F0C6010E94D9
:1008B00003028D858F3F49F0EF85F8898F89902F4E
:1008C0009123A9F09081892B8083E989FA8990810D
:1008D000898D8095892380838E858F3F69F2EB898E
:1008E000FC898081988D892339F2E12AC5CF9081D6
:1008F00080958923E9CF1695C8CF8F929F92AF92AA
:10090000BF92CF92DF92EF92FF920F931F93CF93FC
:10091000DF937C014B016A01B22EA32E0E94B40327
:10092000E401C80CD91CCC15DD0569F4CB2DDA2DFA
:100930000C0F1D1FC017D10759F06FEFC7010E94A0
:10094000C7038993F7CF6991C7010E94C703EBCF13
:10095000C7010E94AC0381E0DF91CF911F910F91FD
:10096000FF90EF90DF90CF90BF90AF909F908F90CF
:1009700008958F929F92AF92BF92CF92DF92EF92A3
:10098000FF920F931F93CF93DF937C01B62EA72E78
:100990006A0149010E94B403E401080D191DC01742
:1009A000D10761F4CB2DDA2DCC0EDD1ECC15DD0583
:1009B00051F06991C7010E94C703F8CF6991C7013F
:1009C0000E94C703ECCFC7010E94AC0381E0DF9116
:1009D000CF911F910F91FF90EF90DF90CF90BF903C
:1009E000AF909F908F9008950895089520912D03C2
:1009F000260F3327331F21323105ECF42091AA034F
:100A0000FC0190E080E0243069F082E00895A0913C
:100A10002D032191AC01435F5C4FA40FB52FB11D95
:100A20002C930196861798F380912D03680F60939D
:100A30002D0380E0089581E008951092AA0381E0DB
:100A40008093A9031092840361E082E10E94B701C0
:100A500061E083E10E94B701E9EBF0E080818E7FE5
:100A6000808380818D7F808388E48093B80085E4D3
:100A70008093BC000895CF93DF9391E090930C0393
:100A80008823B9F0C091B800D091BA008091BC0021
:100A90008A7B8093BC0060E082E10E94B70160E045
:100AA00083E10E94B7010E941D05D093BA00C09354
:100AB000B800DF91CF9108958F929F92AF92BF922D
:100AC000CF92DF92EF92FF920F931F93CF93DF931A
:100AD000D091D303D13208F0D7C0182FC091D203E0
:100AE0000E940E026B017C018091AA0381116BC0F0
:100AF00082E08093AA031093A9038FEF8093A80349
:100B00001092A703D093A603A2EBB3E0E6E8F3E0CC
:100B100080E0D81391C01092850380918503CC0F9B
:100B2000C82BC093850380918403813009F088C06D
:100B3000109284030E940E026B017C018091850358
:100B40008093BB008091AC039091AD03A091AE0364
:100B5000B091AF03892B8A2B8B2BA1F00E940E0240
:100B60000091AC031091AD032091AE033091AF031F
:100B70006C197D098E099F09061717072807390781
:100B800008F442C08091BC0083FDD8CF85EC8093EF
:100B9000BC000E940E026B017C018091AA0382308E
:100BA00009F450C08091A8038F3F09F46FC0809171
:100BB000A803803209F46CC08091A803803309F443
:100BC00069C084E026C08091AC039091AD03A091F0
:100BD000AE03B091AF03892B8A2B8B2B09F484CF02
:100BE0000E940E028090AC039090AD03A090AE03E3
:100BF000B090AF036C197D098E099F098616970680
:100C0000A806B90608F070CF8091AB030E943B059F
:100C100085E01092B1031092D3031092B003DF91DC
:100C2000CF911F910F91FF90EF90DF90CF90BF90E9
:100C3000AF909F908F9008959D9191938F5F69CF12
:100C400085EEA5CF8091AC039091AD03A091AE034A
:100C5000B091AF03892B8A2B8B2B09F49ECF0E9476
:100C60000E020091AC031091AD032091AE033091C0
:100C7000AF036C197D098E099F090617170728070E
:100C8000390708F08ACFC0CF81E0C3CF80E0C1CF61
:100C900082E0BFCF83E0BDCF1F93CF93DF93EA0104
:100CA000122FDC0111968D919C91DC01ED91FC914C
:100CB0000280F381E02D0995C817D90729F4812F07
:100CC0000E945C0591E0811190E0892FDF91CF9126
:100CD0001F910895AF92BF92CF92DF92EF92FF9251
:100CE0000F931F93CF93DF9300D0CDB7DEB7DC0116
:100CF000211103C01A962C911A97253008F043C091
:100D000051964D935D936D937C93549790E080E062
:100D1000E22EF12C8E159F05B4F41C962C911C9795
:100D200021110AC0FD01E80FF91F4587452F562FF5
:100D3000672F77270196EECFF701E81BF90BEA0F33
:100D4000FB1F4487F3CF6D018DE0C80ED11C1896B0
:100D50009C91189719968C91199799838A83AD90D5
:100D6000BC901197A114B10409F441C01B960C91D9
:100D700010E098012E0D3F1DD50114968D919C9188
:100D80008217930710F480E016C0F50181819281EB
:100D9000208131E03093B0032093D2031092B1034D
:100DA0001092D3030115110599F421E0A701B601B2
:100DB000C5010E944C060F900F90DF91CF911F91BB
:100DC0000F91FF90EF90DF90CF90BF90AF9008957C
:100DD000DC01ED91FC910280F381E02DA801BE01C0
:100DE0006F5F7F4F09950817190769F6DECF1296D6
:100DF000ED91FC911397309749F116962D913C9106
:100E000017971B960C9110E02330310571F48E7FFB
:100E100089839A830F5F1F4F9E012F5F3F4FA7016A
:100E2000B601CF010E94B904C6CF2115310519F4CE
:100E30009F779983F1CF2230310511F49068F9CF73
:100E40002130310549F79F779064F3CF1496ED91E7
:100E5000FC911597309709F496CF8085882309F483
:100E600092CFA680B780A114B10409F48CCF87017A
:100E700096011B964C91BE016F5F7F4F81859285D5
:100E8000F501099598CFCF93DF93EC018B818823EF
:100E9000A1F0888191E09093B0038093D2031092E7
:100EA000B1031092D30381E00E945C0591E08111AF
:100EB00090E0892FDF91CF910895109275031092E1
:100EC00074031092B1031092D3030E941D0581E7B1
:100ED00092E0909371038093700382E792E0909385
:100EE00073038093720381E08B83CE010E944307DA
:100EF000982F8111CECFDDCF0895E09175038091B9
:100F00007403E81730F4F0E0E05BFC4F808190E080
:100F100008958FEF9FEF089590917503809174036A
:100F20002FEF3FEF981748F4E92FF0E0E05BFC4F1C
:100F3000208130E09F5F90937503C90108958091EF
:100F4000740390917503891B990B0895CF92DF92DA
:100F5000EF92FF920F931F93CF93DF937C01CB010E
:100F60008A012091B003222389F0EB016B01C40EAA
:100F7000D51ECC15DD0569F06991D701ED91FC9185
:100F80000190F081E02DC7010995F3CF642F0E94F5
:100F9000F604C801DF91CF911F910F91FF90EF9060
:100FA000DF90CF900895CF93DF931F92CDB7DEB738
:100FB00069832091B0032223F9F02091D3032032DA
:100FC00058F021E030E0FC013383228390E080E0A0
:100FD0000F90DF91CF9108958091B103E82FF0E059
:100FE000EE54FC4F998190838F5F8093B10380937F
:100FF000D30381E090E0ECCF61E0CE0101960E9446
:10100000F604F7CF90E080E00895FC010190002005
:10101000E9F73197AF01481B590BBC0185EE93E00E
:101020000C949F028F929F92AF92BF920F931F9347
:10103000CF93DF93CDB7DEB7A1970FB6F894DEBF9D
:101040000FBECDBF19A2423008F44AE08E010F5DF9
:101050001F4F842E912CB12CA12CA50194010E942C
:101060000818E62FB901CA01EA30F4F4E05DD801AE
:10107000EE938D01232B242B252B79F790E080E034
:10108000109719F0CD010E940508A1960FB6F894AB
:10109000DEBF0FBECDBFDF91CF911F910F91BF90EB
:1010A000AF909F908F900895E95CE1CF009711F089
:1010B0000C94050890E080E00895CF93DF930E94A0
:1010C0000508EC018BE591E00E9405088C0F9D1F3F
:1010D000DF91CF9108954F925F926F927F928F929E
:1010E0009F92AF92BF92CF92DF92EF92FF920F93B7
:1010F0001F93CF936B017C01742EAC019B010E9466
:10110000B61A882399F08EE591E0CF911F910F9147
:10111000FF90EF90DF90CF90BF90AF909F908F9017
:101120007F906F905F904F900C9405084601570197
:10113000E894B7F82FEF3FEF4FE75FE7C501B40141
:101140000E94B61A81110DC02FEF3FEF4FE75FE706
:10115000C501B4010E94A61818161CF482E691E09D
:10116000D4CF2FEF3FEF4FE75FE4C701B6010E94F6
:10117000FE1918161CF486E691E0C7CF2FEF3FEF5B
:101180004FE75FECC701B6010E94A61887FDF3CFB9
:1011900020E030E0A901C701B6010E94A61810E0C6
:1011A00000E087FF0AC06DE285EE93E00E943F03F6
:1011B0008C01F7FAF094F7F8F094C0E060E070E08A
:1011C00080E09FE37C1641F020E030E040E251E413
:1011D0000E94AB18CF5FF6CFA70196010E943A1884
:1011E0002B013C010E941D194B015C014AE00E9449
:1011F00012087C01E00EF11ECC23C1F1C501B4013F
:101200000E944C199B01AC01C301B2010E94391824
:101210004B015C016EE285EE93E00E943F03E80E15
:10122000F91EC15018F120E030E040E251E4C50160
:10123000B4010E94031A2B013C010E941D194B01AD
:10124000B12CA12C4AE0C501B4010E941208E80E9D
:10125000F91EC501B4010E944C199B01AC01C301E8
:10126000B2010E9439184B015C01DBCFC701CF915D
:101270001F910F91FF90EF90DF90CF90BF90AF90B4
:101280009F908F907F906F905F904F900895CF9236
:10129000DF92EF92FF92CF93DF936C01990FEE08EC
:1012A000FF08F7FE19C06DE285EE93E00E943F0350
:1012B000EC0166277727CB016C197D098E099F0900
:1012C0004AE00E9412088C0F9D1FDF91CF91FF9082
:1012D000EF90DF90CF9008954AE0C701B601DF910B
:1012E000CF91FF90EF90DF90CF900C9412082F9247
:1012F0003F924F925F926F927F928F929F92AF92A6
:10130000BF92CF92DF92EF92FF920F931F93CF93F2
:10131000DF9300D000D0CDB7DEB7DC014B01042F46
:1013200018969C91189719968C91199799838A838E
:101330002D903C9011972114310409F43AC11B9669
:101340004C9150E0D10114968D919C918417950792
:10135000C8F4D12C8D2D0F900F900F900F90DF912E
:10136000CF911F910F91FF90EF90DF90CF90BF90A2
:10137000AF909F908F907F906F905F904F903F9035
:101380002F900895F101808191E09093B0038093B4
:10139000D2031092B1031092D30320E0BE016F5F1D
:1013A0007F4FC1010E944C06D82E882391F2802FD6
:1013B00090E09C838B83B12CA12C01E0AB81BC819C
:1013C000AA16BB0638F6F101848195817D01EA18E1
:1013D000FB088E159F0508F47C01D101CC900E947A
:1013E0000E022B013C018091AA03811172C01E2DB7
:1013F000113208F010E20093AA0321E08B819C8156
:101400008E199F09A816B90608F420E02093A903B5
:10141000BFEFB093A8031092A7038FEF810F8093C3
:10142000A6030093850380918503CC0CC82AC09243
:10143000850380918403813009F092C01092840367
:101440000E940E022B013C01809185038093BB001A
:101450008091AC039091AD03A091AE03B091AF0326
:10146000892B8A2B8B2BA1F00E940E022091AC03BA
:101470003091AD034091AE035091AF0364197509EB
:1014800086099709261737074807590708F442C005
:101490008091BC0083FDD8CFE5ECE093BC000E94B6
:1014A0000E022B013C018091AA03813009F45CC03B
:1014B0008091A703811710F41091A703A6E8B3E069
:1014C000E0E5F3E080E0811751F19D9191938F5F0A
:1014D000FACF8091AC039091AD03A091AE03B0918F
:1014E000AF03892B8A2B8B2B09F47DCF0E940E0230
:1014F0002091AC033091AD034091AE035091AF0306
:101500006419750986099709261737074807590787
:1015100008F069CF8091AB030E943B0510E0109268
:101520007503109374031E151F0409F012CF3401C4
:101530006A0C7B1C2301C201861997098E159F0531
:10154000A8F5D10111968D919C91DC01ED91FC9152
:101550000284F385E02D0995F20181932F01EBCFF1
:10156000F5EEF093BC009BCF8091AC039091AD035E
:10157000A091AE03B091AF03892B8A2B8B2B09F47A
:1015800092CF0E940E022091AC033091AD034091A6
:10159000AE035091AF0364197509860997092617A0
:1015A00037074807590708F07ECFB4CFAE0CBF1CF1
:1015B00005CF1296ED91FC911397309749F116964D
:1015C0002D913C91179710E01B964C9150E02330E1
:1015D000310571F4816089839A834F5F5F4F940175
:1015E000BE016F5F7F4FCF010E947D04D82EB2CE27
:1015F0002115310519F490689983F1CF2230310516
:1016000011F49F77F9CF2130310549F7906CF4CF71
:101610001496ED91FC911597309709F49ACE808538
:10162000882309F496CEE480F580E114F10409F4EE
:1016300090CE10E09B011B964C91BE016F5F7F4FD7
:1016400081859285F7010995D1CFCF93DF93EC0186
:10165000BC01635F7F4F4A850E947709882301F1AF
:101660004A8550E030E020E060E070E0CB012417D4
:101670003507CCF4982F872F762F6627EC85E1115C
:101680000AC0FA01E21BF30BEC0FFD1FE4856E2B81
:101690002F5F3F4FECCFFE01E20FF31FE585F7CF41
:1016A0006FEF7FEFCB01DF91CF9108958F929F92E3
:1016B000AF92BF92CF92DF92EF92FF920F931F9360
:1016C000CF93DF93EC014A015B01888199810E94ED
:1016D000250B2A8101E010E002C0000F111F2A959E
:1016E000E2F701501109012E000C220B330BAB81E4
:1016F000680179010A2E04C0CC0CDD1CEE1CFF1C15
:101700000A94D2F7C094D094E094F094C622D722E1
:10171000E822F922E881F981B901A801482159217B
:101720006A217B2104C0440F551F661F771FAA95AD
:10173000D2F74C295D296E297F292285CF01DF91BF
:10174000CF911F910F91FF90EF90DF90CF90BF90BE
:10175000AF909F908F900C946A060F931F93CF9336
:10176000DF93EC01888199810E94250BAB01BC01BC
:101770002A8181E090E002C0880F991F2A95E2F744
:101780000197092E000CAA0BBB0B2B8104C0769588
:101790006795579547952A95D2F78C019D010423AB
:1017A000152326233723C901B801DF91CF911F915B
:1017B0000F910895AF92BF92CF92DF92EF92FF9276
:1017C0000F931F93CF93DF93CDB7DEB7EC970FB690
:1017D000F894DEBF0FBECDBF8C01FC01868D978DC6
:1017E0001FA218A619A61AA69F8B8E8B198E188E6B
:1017F000FF24F394F9A28BE390E09F8F8E8F1AA2BF
:101800008EE088A34EE0BE01655D7F4FCE01469617
:101810000E9477098BA59CA5982789279827F8010E
:1018200095A784A78DA59EA598278927982797A770
:1018300086A78FA598A998278927982791AB80AB71
:1018400069A97AA976276727762773AB62AB8BA93C
:101850009CA998278927982795AB84AB8DA99EA929
:1018600098278927982797AB86AB8FA998AD98279B
:101870008927982791AF80AF072E000C880B990B12
:101880000E944E1920E030E04AEA53E40E94AB186F
:1018900028EB3EE142E152E40E943A18F8016283EB
:1018A000738384839583868D978D1A8A1B8A1C8AFD
:1018B0001D8A9A8389831C821B82FC868CE190E0BE
:1018C0009A8789871D86FB86CE0101965C019AAFB7
:1018D00089AF82E08BAF83E08CAFCE01C9960E94C6
:1018E000AD0BC12CD12CE12CE5E4FE2E633071054B
:1018F000E1F06230710599F06130710509F4D6C0EC
:10190000C12CD12CF0E8EF2EFFE3FF2E672B69F4FA
:10191000C12CD12C50E8E52E56E4F52E06C0C12C82
:10192000D12C70E8E72E75E4F72EF80164A575A5B3
:10193000072E000C880B990B0E944E19A7019601E7
:101940000E94AB18F801668377838087918766A52C
:1019500077A5072E000C880B990B0E944E19A70142
:1019600096010E94AB18F801628773878487958778
:1019700060A971A9072E000C880B990B0E944E19C3
:10198000A70196010E94AB18F80166877787808BC4
:10199000918B868D978D1A8A1B8A1C8A1D8A9A8341
:1019A00089831C821B8281E08C872BE130E03A879F
:1019B00029871D868B87BAAEA9AE82E08BAF83E004
:1019C0008CAFCE01C9960E94AD0BC12CD12C33E057
:1019D000E32E33E4F32E6115710519F1C12CD12CDE
:1019E00023E8E22E22E4F22E61307105D1F093E378
:1019F000C92EDC2C93E0E92E92E4F92E62307105B9
:101A000081F0C12CD12C40E8E42E4FE3F42E63305A
:101A1000710539F483E3C82EDC2C83E8E82E81E4D9
:101A2000F82EF80164A975A9072E000C880B990BF4
:101A30000E944E19A70196010E94AB18F801628B13
:101A4000738B848B958B66A977A9072E000C880B66
:101A5000990B0E944E19A70196010E94AB18F8013C
:101A6000668B778B808F918F60AD71AD072E000CE8
:101A7000880B990B0E944E19A70196010E94AB1882
:101A8000F801628F738F848F958FEC960FB6F89460
:101A9000DEBF0FBECDBFDF91CF911F910F91FF90A1
:101AA000EF90DF90CF90BF90AF900895C12CD12CD4
:101AB000E12C66E4F62E39CF8F929F92AF92BF92BF
:101AC000CF92DF92EF92FF920F931F93CF93DF930A
:101AD0008C01EB01DC0114968D919C910E94DA0B34
:101AE000F801048115810E946502FE01349620E20E
:101AF000DF011D922A95E9F7C12CD12C7601C39400
:101B0000C882D982EA82FB82F80126A137A1490165
:101B1000B12CA12C8C829D82AE82BF82C886D986D0
:101B2000EA86FB86688B798B8A8B9B8B2AE038EE62
:101B30004CE151E466817781808591850E94031A8A
:101B40006C8B7D8B8E8B9F8B2AE038EE4CE151E4C1
:101B5000D8011A966D917D918D919C911D970E944F
:101B6000031A688F798F8A8F9B8F2AE038EE4CE1B9
:101B700051E4F80166857785808991890E94031A6E
:101B80006C8F7D8F8E8F9F8F81E0DF91CF911F9122
:101B90000F91FF90EF90DF90CF90BF90AF909F900C
:101BA0008F9008950F931F93CF93DF938C01EB01D8
:101BB000DC0114968D919C910E94DA0BF80104814E
:101BC00015810E946502AB01BC01FE01349680E2E2
:101BD000DF011D928A95E9F781E090E0A0E0B0E096
:101BE00088839983AA83BB83F80180A591A5B0E07F
:101BF000A0E08C839D83AE83BF8384E090E0A0E06F
:101C0000B0E088879987AA87BB87488B598B6A8BF6
:101C10007B8B25E33AEF4EE85CE362897389848924
:101C200095890E94031A6C8B7D8B8E8B9F8B25E38D
:101C30003AEF4EE85CE3D80156966D917D918D9117
:101C40009C9159970E94031A688F798F8A8F9B8F76
:101C500025E33AEF4EE85CE3F801628D738D848DE5
:101C6000958D0E94031A6C8F7D8F8E8F9F8F81E0E0
:101C7000DF91CF911F910F9108950F931F93CF93F1
:101C8000DF938C01EB01DC0114968D919C910E94F5
:101C9000DA0BF801048115810E946502AB01BC01D9
:101CA000FE01349680E2DF011D928A95E9F784E215
:101CB00090E0A0E0B0E088839983AA83BB83F80119
:101CC00082A593A5B0E0A0E08C839D83AE83BF8303
:101CD0008DE090E0A0E0B0E088879987AA87BB8775
:101CE000488B598B6A8B7B8B82819381A481B581D0
:101CF0008C8B9D8BAE8BBF8B81E0DF91CF911F9141
:101D00000F9108950C94791B0C94791B0C94791BFA
:101D10009F92AF92BF92CF92DF92EF92FF920F937A
:101D20001F93CF93DF93CDB7DEB7AE970FB6F8947E
:101D3000DEBF0FBECDBF8C01DC0197965C934E9346
:101D40009697CA01019699969C938E9398974E5FA9
:101D50005F4F9B965C934E939A975E962D913C9124
:101D60001FA218A619A61AA63F8B2E8B198E188EA5
:101D700081E089A34BE650E05F8F4E8F1AA288A3C3
:101D80001A8A1B8A1C8A1D8A3A8329831C821B8219
:101D90008C8728E630E03A8729871D868B875E018D
:101DA000B6E1AB0EB11CBCA6ABA68DA787E08EA793
:101DB00041E050E060E070E0CE018B960E94560B4F
:101DC000CE018B960E94AD0B6130710581059105A6
:101DD00039F461E070E080E090E00E943302F0CFDF
:101DE00064E670E080E090E00E94330220E047E08B
:101DF00050E060E070E0FE0131966F01CF010E947B
:101E00006A0664E670E080E090E00E943302D80148
:101E10005E968D919C911A8A1B8A1C8A1D8A9A83D0
:101E200089831C821B82FF24F394FC8689E190E065
:101E30009A8789871D86FB8620E040E050E0BA0142
:101E4000C6010E946A06F801868D978D1A8A1B8A40
:101E50001C8A1D8A9A8389831C821B82FC868AE1E4
:101E600090E09A8789871D86FB86DF8ACE8A83E089
:101E7000E82EE88E198E40E050E0BA01C5010E94BC
:101E8000560BD8015E968D919C911A8A1B8A1C8AEA
:101E90001D8A9A8389831C821B82FC868BE190E0D9
:101EA0009A8789871D86FB86DF8ACE8A92E0992EE3
:101EB000988EE98E41E050E060E070E0C5010E943C
:101EC000560BF801868D978D1A8A1B8A1C8A1D8AEB
:101ED0009A8389831C821B82FC868CE190E09A871E
:101EE00089871D86FB86DF8ACE8A988EE98E40E040
:101EF00050E0BA01C5010E94560BD8015E968D9143
:101F00009C911A8A1B8A1C8A1D8A9A8389831C8247
:101F10001B82FC868BE690E09A8789871D86FB866C
:101F200020E041E050E060E070E0C6010E946A06F7
:101F300064E670E080E090E00E943302F80180A146
:101F400091A1009739F0DC01ED91FC910280F381C1
:101F5000E02D0995F80182A193A1009739F0DC01E9
:101F6000ED91FC910280F381E02D0995F80184A1A7
:101F700095A1009739F0DC01ED91FC910280F3818D
:101F8000E02D099586E090E00E94DD1AFC0187E2D1
:101F900091E09183808380E596E09383828315832B
:101FA0000483D8019196FC93EE93909786E090E09D
:101FB0000E94DD1AFC0189E191E09183808381E533
:101FC00096E09383828315830483D8019396FC93D0
:101FD000EE93929786E090E00E94DD1AFC018BE080
:101FE00091E09183808382E596E0938382831583D9
:101FF0000483D8019596FC93EE93949781E0AE9676
:102000000FB6F894DEBF0FBECDBFDF91CF911F9109
:102010000F91FF90EF90DF90CF90BF90AF909F9087
:1020200008950F931F93CF93DF938C01EB0188E208
:10203000FB0111928A95E9F74BE050E06AE671E006
:10204000CE010E940B1C1B8681E090E0A0E0B0E076
:102050008C879D87AE87BF87F80182819381092E87
:10206000000CAA0BBB0B888B998BAA8BBB8B8DE0CA
:1020700090E0A0E0B0E08C8B9D8BAE8BBF8B1CA260
:102080001DA21EA21FA280E090E0A0E2B2EC8C8F05
:102090009D8FAE8FBF8F80E090E0A2EDB2E4888F7D
:1020A000998FAA8FBB8F84E09DEAA0E4BBE388A34D
:1020B00099A3AAA3BBA3DF91CF911F910F9108957C
:1020C0000F931F93CF93DF938C01EB0188E2FB0109
:1020D00011928A95E9F74BE050E064E771E0CE0198
:1020E0000E940B1C1B8641E050E060E070E04C87D2
:1020F0005D876E877F87F80182819381092E000CAE
:10210000AA0BBB0B888B998BAA8BBB8B4C8B5D8BE3
:102110006E8B7F8B1CA21DA21EA21FA28AE098EECE
:10212000ACE1B3EC8C8F9D8FAE8FBF8F8AE098EEC1
:10213000ACE1B3E4888F998FAA8FBB8F83E29BEDCC
:10214000A9E7BDE388A399A3AAA3BBA3DF91CF917D
:102150001F910F9108950F931F93CF93DF938C01DD
:10216000EB0188E2FB0111928A95E9F74BE050E020
:102170006EE771E0CE010E940B1C1B8681E090E0AF
:10218000A0E0B0E08C879D87AE87BF87F801828191
:102190009381092E000CAA0BBB0B888B998BAA8B01
:1021A000BB8B84E090E0A0E0B0E08C8B9D8BAE8B8D
:1021B000BF8B1CA21DA21EA21FA287ED93EAABE05B
:1021C000B2EC8C8F9D8FAE8FBF8F87ED93EAABE023
:1021D000B2E4888F998FAA8FBB8F8AE99BEAABE024
:1021E000B9E388A399A3AAA3BBA3DF91CF911F91C1
:1021F0000F91089585ED8093BC008091AC03909180
:10220000AD03A091AE03B091AF030796A11DB11D20
:1022100023E0B695A795979587952A95D1F72091B4
:10222000BC0024FD03C01092AA0308954091AC03A2
:102230005091AD036091AE037091AF03452B462BD7
:10224000472B69F30097A105B10541F02AE22A95D1
:10225000F1F700C00197A109B109E1CF8091AB036B
:102260000C943B051F920F920FB60F9211242F93DF
:102270003F938F939F93AF93BF9380917C039091F3
:102280007D03A0917E03B0917F0330917B0323E017
:10229000230F2D3758F50196A11DB11D20937B0307
:1022A00080937C0390937D03A0937E03B0937F0380
:1022B0008091800390918103A0918203B091830368
:1022C0000196A11DB11D8093800390938103A0937B
:1022D0008203B0938303BF91AF919F918F913F9100
:1022E0002F910F900FBE0F901F90189526E8230F87
:1022F0000296A11DB11DD2CF1F920F920FB60F9261
:1023000011242F933F934F935F936F937F938F93FA
:102310009F93AF93BF93EF93FF938091D9039091D5
:10232000DA03A091DB03B091DC03892B8A2B8B2B82
:10233000D1F19091D403E091D503F091D60380813F
:10234000892780838091D9039091DA03A091DB03E0
:10235000B091DC03181619061A061B069CF480912E
:10236000D9039091DA03A091DB03B091DC030197CC
:10237000A109B1098093D9039093DA03A093DB03F9
:10238000B093DC03FF91EF91BF91AF919F918F913B
:102390007F916F915F914F913F912F910F900FBE61
:1023A0000F901F901895809100010E947302EACF50
:1023B0001F920F920FB60F9211242F933F934F93BA
:1023C0005F936F937F938F939F93AF93BF93EF939D
:1023D000FF9385EE93E00E941D03FF91EF91BF9163
:1023E000AF919F918F917F916F915F914F913F91AD
:1023F0002F910F900FBE0F901F9018951F920F9264
:102400000FB60F9211242F938F939F93EF93FF9307
:10241000E091F503F091F6038081E091FB03F091E8
:10242000FC0382FD1BC090818091FE038F5F8F7340
:102430002091FF03821741F0E091FE03F0E0EB51A1
:10244000FC4F958F8093FE03FF91EF919F918F91A9
:102450002F910F900FBE0F901F9018958081F4CF91
:102460001F920F920FB60F9211242F933F934F9309
:102470005F936F937F938F939F93AF93BF93EF93EC
:10248000FF938091B900887F803609F44AC0F0F547
:10249000883209F4A7C018F5803109F49BC0B8F45C
:1024A000882309F4F9C0883009F494C0FF91EF91B2
:1024B000BF91AF919F918F917F916F915F914F915C
:1024C0003F912F910F900FBE0F901F90189588315C
:1024D00009F488C0803251F78093A80314C0803477
:1024E00009F49DC040F48033B9F38833F9F6809342
:1024F000A80385ECB0C0803509F485C0883509F49F
:1025000096C0883499F60E94FA10D0CF883909F421
:102510008CC038F5883729F050F4883611F08037B0
:1025200029F683E08093AA0310924F0357C088389E
:1025300009F47BC0803919F0803809F0B7CF809159
:102540004F03803208F071C0E0914F0381E08E0F9D
:1025500080934F038091BB00F0E0E15DFC4F8083EE
:102560003DC0803B39F0E0F4803A09F479C0883A04
:1025700009F09CCF84E08093AA0310922E0310925E
:102580002D03E0917003F0917103099580912D0363
:1025900081110FC081E080932D0310920D0309C0BB
:1025A000803C09F4A6CF883C09F4A3CF883B09F00E
:1025B0007DCFE0912E0381E08E0F80932E03F0E01B
:1025C000E35FFC4F80818093BB0090912E0380914C
:1025D0002D0329C0809185038093BB0085EC8093F7
:1025E000BC0064CF9091A7038091A603981758F57B
:1025F000E091A70381E08E0F8093A703F0E0EA57F4
:10260000FC4F8081E9CFE091A70381E08E0F80939A
:10261000A7038091BB00F0E0EA57FC4F80839091C4
:10262000A7038091A6039817C8F285E8D8CFE09158
:10263000A70381E08E0F8093A7038091BB00F0E099
:10264000EA57FC4F80838091A90381115CCF81E020
:102650008093840384EA8093BC001092AA0326CF5F
:1026600085EC8093BC001092AA0380914F038032C6
:1026700030F4E0914F03F0E0E15DFC4F1082609197
:102680004F0370E0E0917203F09173038FE293E0E7
:10269000099510924F030ACF1092A80334CFE5EEAC
:1026A000F3E01382128288EE93E0A0E0B0E084832E
:1026B0009583A683B78325E331E03183208325EC1E
:1026C00030E03587248724EC30E03787268720ECFC
:1026D00030E0318B208B21EC30E0338B228B22ECED
:1026E00030E0358B248B26EC30E0378B268B118E37
:1026F000128E138E148EE2E8F4E013821282848329
:102700009583A683B78387E491E091838083EEE885
:10271000F4E089E591E091838083178E168E11A2F3
:1027200010A213A212A215A214A20895CF93DF93B0
:10273000CDB7DEB7C857D1090FB6F894DEBF0FBECC
:10274000CDBF789484B5826084BD84B5816084BD3A
:1027500085B5826085BD85B5816085BD80916E003F
:10276000816080936E001092810080918100826070
:1027700080938100809181008160809381008091AD
:1027800080008160809380008091B100846080939C
:10279000B1008091B00081608093B00080917A0098
:1027A000846080937A0080917A00826080937A00BE
:1027B00080917A00816080937A0080917A008068AD
:1027C00080937A001092C100E091F503F091F60336
:1027D00082E08083E091F103F091F2031082E091B6
:1027E000F303F091F40380E180831092FD03E09104
:1027F000F903F091FA0386E08083E091F703F0910A
:10280000F803808180618083E091F703F091F80301
:10281000808188608083E091F703F091F8038081E4
:1028200080688083E091F703F091F80380818F7DC9
:10283000808388E00E94890089E00E9489008AE004
:102840000E9489008BE00E9489008091AC049091E5
:10285000AD04009711F00E94791B86E090E00E9481
:10286000DD1AFC0188E6808382E894E0928381830C
:10287000138280E290E095838483F093AD04E0932B
:10288000AC0405E061E7C62E62E0D62E72E7A72E03
:1028900072E0B72E11E0E090AC04F090AD0410921D
:1028A0007503109274031092B1031092D3030E9427
:1028B0001D05D0927103C0927003B0927303A09271
:1028C0007203D70113961C93C7010E94430781111D
:1028D00091C06AE070E080E090E00E943302015015
:1028E000D1F68CEB91E00E945D086AE070E080E038
:1028F00090E00E943302F9CF20EBE22E21E0F22E8D
:102900008036910508F0BEC289EAE82E81E0F82EF3
:10291000B9C20E9465024B015C0168E871E0C70121
:102920000E94021C66E970E0892B11F060E971E0F9
:1029300020917703309178034091790350917A0385
:10294000D501C401821B930BA40BB50BE9968CAF88
:102950009DAFAEAFBFAFE997CB01B0E0A0E0E99685
:102960002CAD3DAD4EAD5FADE997281739074A074D
:102970005B0770F0809176038092770390927803E2
:10298000A0927903B0927A0391E08927809376032D
:1029900068E871E0C7010E94021C10917603892B40
:1029A00061F4612F8AE00E94B7018CED95E011235C
:1029B00009F480C20E94A80080C26BE971E0C701DF
:1029C0000E94021C612F892B41F489E00E94B7010B
:1029D00088EE93E01111EECF6DC289E00E94B7013D
:1029E000612F8AE00E94B701112309F463C280EBD2
:1029F00094E0E0CF8091AC049091AD041A8A1B8AD8
:102A00001C8A1D8A9A8389831C821B821C8785E706
:102A100090E09A8789871D861B87AE014F5F5F4FC5
:102A20007A01CA010E94250B68367105810591055E
:102A300009F057CF40E050E0BA018EE894E00E94E0
:102A4000880E082F882309F44CCF8091AC04909114
:102A5000AD041A8A1B8A1C8A1D8A9A8389831C8268
:102A60001B821C878CE190E09A8789871D861B87D3
:102A7000FEA2EDA242E0C42ECFA253E0D52ED8A6EE
:102A800041E050E060E070E0CE0185960E94560B78
:102A90008091AC049091AD041A8A1B8A1C8A1D8A0D
:102AA0009A8389831C821B821C878BE190E09A8722
:102AB00089871D861B87FEA2EDA2CFA2D8A641E082
:102AC00050E060E070E0CE0185960E94560B809148
:102AD000AC049091AD041A8A1B8A1C8A1D8A9A83C1
:102AE00089831C821B821C878AE190E09A878987F0
:102AF0001D861B87FEA2EDA2DFA218A644E050E0CF
:102B000060E070E0CE0185960E94560B8FED91E05B
:102B10000E945D088CE192E00E945D0886E592E0EB
:102B20000E945D08FE013D96AF96FFAFEEAFAF97F6
:102B300029E430E02C0F3D1F245F3F4FE5963FAF67
:102B40002EAFE5971E0131E3230E311C0E94650272
:102B50006B017C018EE894E00E94DA0B18E1AF96DD
:102B6000AEADBFADAF97E12F1D92EA95E9F724E234
:102B700030E040E050E029833A834B835C838091CE
:102B8000B8049091B904B0E0A0E08D839E83AF8338
:102B9000B8878DE090E0A0E0B0E089879A87AB87A6
:102BA000BC87C98ADA8AEB8AFC8A8091900490916A
:102BB0009104A0919204B09193048D8B9E8BAF8B66
:102BC000B88FE596AEADBFADE597E12F1D92EA95C2
:102BD000E9F721E030E040E050E02D962CAF3DAF2A
:102BE0004EAF5FAF2D978091B4049091B504B0E0E3
:102BF000A0E061968CAF9DAFAEAFBFAF6197659619
:102C00002CAF3DAF4EAF5FAF65976D96CCAEDDAEEE
:102C1000EEAEFFAE6D972AE038EE4CE151E46091E4
:102C200094047091950480919604909197040E9469
:102C3000031A2B013C01A1964CAE5DAE6EAE7FAE89
:102C4000A1972AE038EE4CE151E46091980470912C
:102C5000990480919A0490919B040E94031A4B015D
:102C60005C01A5968CAE9DAEAEAEBFAEA5972AE038
:102C700038EE4CE151E460919C0470919D04809188
:102C80009E0490919F040E94031AE3966CAF7DAF5F
:102C90008EAF9FAFE397A9966CAF7DAF8EAF9FAF1E
:102CA000A997D1011D921A95E9F721E030E040E0A3
:102CB00050E02DA33EA34FA358A78091B604909156
:102CC000B704B0E0A0E089A79AA7ABA7BCA784E0AF
:102CD00090E0A0E0B0E08DA79EA7AFA7B8ABCDAACB
:102CE000DEAAEFAAF8AE25E33AEF4EE85CE3609186
:102CF000A0047091A1048091A2049091A3040E9469
:102D0000031A69AF7AAF8BAF9CAF25E33AEF4EE879
:102D10005CE36091A4047091A5048091A604909155
:102D2000A7040E94031A21966CAF7DAF8EAF9FAFB0
:102D3000219725E33AEF4EE85CE36091A804709197
:102D4000A9048091AA049091AB040E94031A2596CD
:102D50006CAF7DAF8EAF9FAF259723EC35EF4CE185
:102D600051E4C301B2010E94AB182B013C0123ECDA
:102D700035EF4CE151E4C501B4010E94AB184B01A1
:102D80005C0123EC35EF4CE151E4E3966CAD7DAD95
:102D90008EAD9FADE3970E94AB186B017C01A30140
:102DA0009201C301B2010E94031A2B013C01A5014B
:102DB0009401C501B4010E94031A9B01AC01C30137
:102DC000B2010E943A184B015C01A7019601C701AC
:102DD000B6010E94031A9B01AC01C501B4010E9417
:102DE0003A180E94761A2B013C012DEC3CEC4CE089
:102DF00050E40E94FE19102F181664F02DEC3CECE4
:102E00004CEC5EE3C301B2010E94A618182F111FFB
:102E10001127111F80E480937C0080917A008064E8
:102E200080937A0080917A0086FDFCCFA091780093
:102E3000B09179002CE830E00E94D01A2FEF33E0F7
:102E400040E050E00E94E917DA01C9018896A11D0F
:102E5000B11DE3968CAF9DAFAEAFBFAFE397E196E8
:102E60008EAD9FADE1978D97112309F445CD38E8DC
:102E7000E32E31E0F32E8036910520F49BE9E92E14
:102E800091E0F92E60E088E00E94B70160E089E0FF
:102E90000E94B70160E08AE00E94B70169EA71E030
:102EA000C7010E94021C892B09F033CD61E088E044
:102EB0000E94B7018BE00E94730269EA71E0C701CA
:102EC0000E94021C892BF1F08BE892E00E945608C8
:102ED000C7010E94560882EB92E00E94560842E029
:102EE000C301B2010E946B0889EC92E00E9456086F
:102EF000E1968EAD9FADE1970E9447098CED92E07F
:102F00000E945D088EED92E00E945608C7010E9463
:102F1000560887EE92E00E94560842E0C301B201D3
:102F20000E946B0887EF92E00E945608E1968EADF2
:102F30009FADE1970E94470986E093E00E945D08FB
:102F400064E670E080E090E00E94330280E090E070
:102F5000892B09F4FBCD0E940903882309F4F6CDDF
:102F60000E940000F3CD89E591E090938F04809357
:102F70008E048091AE049091AF04009739F0DC018B
:102F8000ED91FC910280F381E02D09958091B004D0
:102F90009091B104009739F0DC01ED91FC91028031
:102FA000F381E02D09958091B2049091B3040097CC
:102FB00039F0DC01ED91FC910280F381E02D09955F
:102FC0008091AC049091AD04009711F00C94791BA2
:102FD0000895052E97FB1EF400940E94001857FDDB
:102FE00007D00E94081807FC03D04EF40C94001878
:102FF00050954095309521953F4F4F4F5F4F089525
:1030000090958095709561957F4F8F4F9F4F089554
:10301000A1E21A2EAA1BBB1BFD010DC0AA1FBB1FDC
:10302000EE1FFF1FA217B307E407F50720F0A21B4E
:10303000B30BE40BF50B661F771F881F991F1A94BB
:1030400069F760957095809590959B01AC01BD01E5
:10305000CF010895A29FB001B39FC001A39F700D3F
:10306000811D1124911DB29F700D811D1124911D90
:1030700008955058BB27AA270E9451180C94C419D0
:103080000E94B61938F00E94BD1920F039F49F3F14
:1030900019F426F40C94B3190EF4E095E7FB0C94A4
:1030A000AD19E92F0E94D51958F3BA1762077307B3
:1030B0008407950720F079F4A6F50C94F7190EF41F
:1030C000E0950B2EBA2FA02D0B01B90190010C0138
:1030D000CA01A0011124FF27591B99F0593F50F450
:1030E000503E68F11A16F040A22F232F342F4427A8
:1030F000585FF3CF469537952795A795F0405395A0
:10310000C9F77EF41F16BA0B620B730B840BBAF06F
:103110009150A1F0FF0FBB1F661F771F881FC2F7DA
:103120000EC0BA0F621F731F841F48F487957795EE
:103130006795B795F7959E3F08F0B0CF9395880FA8
:1031400008F09927EE0F9795879508950E948919A1
:1031500008F481E008950E94BF180C94C4190E94DD
:10316000BD1958F00E94B61940F029F45F3F29F0CC
:103170000C94AD1951110C94F8190C94B3190E94C8
:10318000D51968F39923B1F3552391F3951B550B8A
:10319000BB27AA2762177307840738F09F5F5F4F2A
:1031A000220F331F441FAA1FA9F335D00E2E3AF069
:1031B000E0E832D091505040E695001CCAF72BD081
:1031C000FE2F29D0660F771F881FBB1F26173707D2
:1031D0004807AB07B0E809F0BB0B802DBF01FF2704
:1031E00093585F4F3AF09E3F510578F00C94AD191B
:1031F0000C94F8195F3FE4F3983ED4F386957795E5
:103200006795B795F7959F5FC9F7880F911D9695BC
:10321000879597F90895E1E0660F771F881FBB1F18
:10322000621773078407BA0720F0621B730B840BC5
:10323000BA0BEE1F88F7E09508950E94DD1988F01B
:103240009F5798F0B92F9927B751B0F0E1F0660F6A
:10325000771F881F991F1AF0BA95C9F714C0B130AB
:1032600091F00E94F719B1E008950C94F719672FB7
:10327000782F8827B85F39F0B93FCCF386957795DA
:103280006795B395D9F73EF49095809570956195C3
:103290007F4F8F4F9F4F0895E89409C097FB3EF4EE
:1032A00090958095709561957F4F8F4F9F4F992393
:1032B000A9F0F92F96E9BB279395F6958795779511
:1032C0006795B795F111F8CFFAF4BB0F11F460FFD1
:1032D0001BC06F5F7F4F8F4F9F4F16C0882311F029
:1032E00096E911C0772321F09EE8872F762F05C03D
:1032F000662371F096E8862F70E060E02AF09A95D8
:10330000660F771F881FDAF7880F9695879597F9CC
:103310000895990F0008550FAA0BE0E8FEEF161666
:103320001706E807F907C0F012161306E407F507B9
:1033300098F0621B730B840B950B39F40A2661F02D
:10334000232B242B252B21F408950A2609F4A140D0
:10335000A6958FEF811D811D089597F99F6780E8DD
:1033600070E060E008959FEF80EC089500240A94D7
:103370001616170618060906089500240A94121650
:103380001306140605060895092E0394000C11F483
:10339000882352F0BB0F40F4BF2B11F460FF04C030
:1033A0006F5F7F4F8F4F9F4F089557FD9058440F89
:1033B000551F59F05F3F71F04795880F97FB991F94
:1033C00061F09F3F79F08795089512161306140651
:1033D000551FF2CF4695F1DF08C0161617061806DE
:1033E000991FF1CF86957105610508940895E894B9
:1033F000BB2766277727CB0197F908950E94891983
:1034000008F48FEF08950E94161A0C94C4190E94B4
:10341000B61938F00E94BD1920F0952311F00C94D4
:10342000AD190C94B31911240C94F8190E94D519F4
:1034300070F3959FC1F3950F50E0551F629FF00107
:10344000729FBB27F00DB11D639FAA27F00DB11D20
:10345000AA1F649F6627B00DA11D661F829F2227A9
:10346000B00DA11D621F739FB00DA11D621F839F30
:10347000A00D611D221F749F3327A00D611D231F06
:10348000849F600D211D822F762F6A2F11249F5754
:1034900050409AF0F1F088234AF0EE0FFF1FBB1F57
:1034A000661F771F881F91505040A9F79E3F510516
:1034B00080F00C94AD190C94F8195F3FE4F3983E3A
:1034C000D4F3869577956795B795F795E7959F5FC0
:1034D000C1F7FE2B880F911D9695879597F9089552
:1034E00019F416F40C94B3190C94BB1A0E94DD194C
:1034F000B8F39923C9F3B6F39F57550B87FF0E9482
:10350000C91A0024A0E640EA900180585695979584
:1035100028F4805C660F771F881F20F02617370776
:10352000480730F4621B730B840B202931294A2B86
:10353000A69517940794202531254A2758F7660F3A
:10354000771F881F20F026173707480730F4620BD3
:10355000730B840B200D311D411DA09581F7B9011E
:10356000842F9158880F9695879508950E94891900
:10357000880B990B08959F3F31F0915020F4879567
:1035800077956795B795880F911D9695879597F9CB
:10359000089591505040660F771F881FD2F7089505
:1035A0000E942A18B7FF0895821B930B0895EE0F0F
:1035B000FF1F0590F491E02D09940F931F93CF9373
:1035C000DF938230910510F482E090E0E091CA042C
:1035D000F091CB0430E020E0B0E0A0E0309799F427
:1035E0002115310509F44AC0281B390B2430310557
:1035F000D8F58A819B816115710589F1FB0193835F
:103600008283FE0111C040815181028113814817DC
:103610005907E0F04817590799F4109761F012968E
:103620000C93129713961C933296CF01DF91CF9192
:103630001F910F9108950093CA041093CB04F4CF07
:103640002115310551F04217530738F0A901DB016C
:103650009A01BD01DF01F801C1CFEF01F9CF9093CD
:10366000CB048093CA04CDCFFE01E20FF31F8193F8
:1036700091932250310939832883D7CF2091C804F0
:103680003091C904232B41F42091030130910401AE
:103690003093C9042093C8042091010130910201A4
:1036A0002115310541F42DB73EB7409105015091E8
:1036B0000601241B350BE091C804F091C904E21700
:1036C000F307A0F42E1B3F0B2817390778F0AC0145
:1036D0004E5F5F4F2417350748F04E0F5F1F509322
:1036E000C9044093C804819391939FCFF0E0E0E038
:1036F0009CCFCF93DF930097E9F0FC0132971382C0
:103700001282A091CA04B091CB04ED0130E020E018
:103710001097A1F420813181820F931F2091C8045A
:103720003091C9042817390709F061C0F093C90422
:10373000E093C804DF91CF910895EA01CE17DF0727
:10374000E8F54A815B819E0141155105B1F7E90118
:10375000FB83EA8349915991C40FD51FEC17FD07EC
:1037600061F4808191810296840F951FE90199830C
:103770008883828193819B838A83F0E0E0E01296C4
:103780008D919C9113970097B9F52D913C911197CC
:10379000CD010296820F931F2091C8043091C90475
:1037A0002817390739F6309751F51092CB0410924B
:1037B000CA04B093C904A093C804BCCFD383C28306
:1037C00040815181840F951FC817D90761F44E5F5E
:1037D0005F4F88819981480F591F518340838A81A7
:1037E0009B81938382832115310509F0B0CFF0933B
:1037F000CB04E093CA049ECFFD01DC01C0CF13824D
:103800001282D7CFFB01DC018D910190801901104C
:10381000D9F3990B0895FB01DC014150504048F069
:1038200001900D920020C9F701C01D9241505040F7
:10383000E0F7089510E0CEE5D0E004C0FE010E945C
:10384000D71A2196CF35D107C9F7F894FFCFFF00DB
:1038500000CC04800000000000F404820EF504D2C5
:103860000DAB1000000000F404840EF5045C0D6044
:103870001000000000F404860EF5043D0E11100047
:103880000000003F039F02CC028C03FD02DB02EF2D
:103890000200000000D307A60702087C079F078CE0
:1038A000077D0700000000880E0D0A006E616E00A3
:1038B000696E66006F7666004D5055363035305F64
:1038C00054004D5055363035305F41004D5055361F
:1038D0003035305F4700436F6D62696E6564204527
:1038E0006D657267656E637900506F737369626CA2
:1038F000652046616C6C004E6F726D616C004865AE
:1039000061727420416C657274004D5055363035CB
:1039100030206E6F7420666F756E64202D2D2063CD
:103920006865636B20776972696E672E0053656EF8
:1039300074727942616E64206669726D7761726536
:10394000207265616479202D2D20667573696F6E14
:10395000206C6F6769632072756E6E696E67206F89
:103960006E2D6465766963652E004472616720740C
:10397000686520706F74656E74696F6D65746572CB
:1039800020746F2073696D756C6174652068656162
:10399000727420726174653B207368616B652F6679
:1039A0006C697000746865204D5055363035302094
:1039B000696E2074686520576F6B776920334420E7
:1039C0007669657720746F2073696D756C617465B5
:1039D00020612066616C6C2E005B424C455D207B53
:1039E00022646576696365223A2253656E74727942
:1039F00042616E64222C227374617465223A220043
:103A0000222C22616363656C5F6D61676E697475FA
:103A100064655F67223A002C2268656172745F7288
:103A20006174655F62706D223A007D005B535441A2
:103A300054455D200020207C2020616363656C5F1D
:103A40006D61673D0067202068656172745F726117
:0A3A500074653D002062706D0000F7
:107E0000112484B714BE81FFF0D085E080938100F7
:107E100082E08093C00088E18093C10086E0809377
:107E2000C20080E18093C4008EE0C9D0259A86E02C
:107E300020E33CEF91E0309385002093840096BBD3
:107E4000B09BFECF1D9AA8958150A9F7CC24DD24C4
:107E500088248394B5E0AB2EA1E19A2EF3E0BF2EE7
:107E6000A2D0813461F49FD0082FAFD0023811F036
:107E7000013811F484E001C083E08DD089C08234E0
:107E800011F484E103C0853419F485E0A6D080C0E4
:107E9000853579F488D0E82EFF2485D0082F10E0AE
:107EA000102F00270E291F29000F111F8ED06801E7
:107EB0006FC0863521F484E090D080E0DECF843638
:107EC00009F040C070D06FD0082F6DD080E0C81688
:107ED00080E7D80618F4F601B7BEE895C0E0D1E017
:107EE00062D089930C17E1F7F0E0CF16F0E7DF06D8
:107EF00018F0F601B7BEE89568D007B600FCFDCFD4
:107F0000A601A0E0B1E02C9130E011968C91119780
:107F100090E0982F8827822B932B1296FA010C0160
:107F200087BEE89511244E5F5F4FF1E0A038BF0790
:107F300051F7F601A7BEE89507B600FCFDCF97BE46
:107F4000E89526C08437B1F42ED02DD0F82E2BD052
:107F50003CD0F601EF2C8F010F5F1F4F84911BD097
:107F6000EA94F801C1F70894C11CD11CFA94CF0C13
:107F7000D11C0EC0853739F428D08EE10CD085E9AC
:107F80000AD08FE07ACF813511F488E018D01DD067
:107F900080E101D065CF982F8091C00085FFFCCF94
:107FA0009093C60008958091C00087FFFCCF809118
:107FB000C00084FD01C0A8958091C6000895E0E648
:107FC000F0E098E1908380830895EDDF803219F02E
:107FD00088E0F5DFFFCF84E1DECF1F93182FE3DFCA
:107FE0001150E9F7F2DF1F91089580E0E8DFEE27F6
:047FF000FF270994CA
:027FFE00040479
:00000001FF
